:100000000C943A000C9457000C9457000C94570031
:100010000C9457000C9457000C9457000C94570004
:100020000C9457000C9457000C9457000C945700F4
:100030000C9457000C9457000C9457000C945700E4
:100040000C9457000C9457000C9457000C945700D4
:100050000C9457000C9457000C9457000C945700C4
:100060000C9457000C9457000C9457000C945700B4
:100070000C94570011241FBECFEFD4E0DEBFCDBFDC
:1000800011E0A0E0B1E0E4EEF6E002C005900D92D0
:10009000AA33B107D9F721E0AAE3B1E001C01D926C
:1000A000AF34B207E1F70E9483020C9470030C9402
:1000B00000006230710519F170F46130710559F575
:1000C000FC01FF2724A1392F3095922F932394A36D
:1000D00085A183231DC06330710541F06430710533
:1000E000D1F4FC01FF2784A1892B0FC0FC01FF275D
:1000F00084A1892B84A385A19095892309C0FC0143
:10010000FF2784A1292F2095822384A385A1892BF1
:1001100085A381E0089580E0089563E070E080E0C9
:1001200090E10E94590063E070E083E090E10E945A
:10013000590063E070E083E090E80E94590063E0BA
:1001400070E083E090E20C945900E1E6F0E080E892
:1001500080831082A89584B7877F84BFE0E6F0E0B3
:10016000808188618083108208951092800084E0ED
:1001700080938100109285001092840008958091F0
:100180008400909185000895AC0180918400909145
:1001900085009C01241B350B283E3340B0F70895A1
:1001A0002091840030918500820F931F0C94C4002D
:1001B000853098F4673088F421E030E001C0220FE8
:1001C0006A95EAF7E82FF0E0E55CFE4F922F9095F4
:1001D000808189234111822B80830895853080F4AA
:1001E000673070F421E030E001C0220F6A95EAF731
:1001F000E82FF0E0E55CFE4F8081282381E009F4E0
:1002000080E0089560913A01E62FF0E0E55CFE4F52
:1002100080810E94500180913A018F5F853018F4EF
:1002200080933A01089510923A010895EBE3F1E0CA
:100230001082118212821382148208950E942E016C
:100240000C9416019C01FC01FF2784A1832B84A33D
:1002500095A1892F832B85A381E00895CF93DF9308
:10026000C2E2D1E0899199910E94220181E0C033DC
:10027000D807C1F783E090E40E94220180E090E873
:100280000E94220183E090E10E94220183E090E835
:100290000E94220183E090E2DF91CF910C94220131
:1002A000E0914001F0E0EE0FFF1FE85EFE4F20817D
:1002B0003181F901FF2795A1932B95A3E2E2F1E0AB
:1002C00097E020813181D901BB2795962C91959794
:1002D00080FF03C03095232301C0232B95962C93D8
:1002E0008695915032969111ECCFE62FF0E0EE0F0B
:1002F000FF1FE85EFE4F80819181FC01FF2785A1F1
:100300009095892385A3609340010895623071051B
:1003100019F170F46130710559F5FC01FF2724A132
:10032000392F3095922F932394A385A183231DC049
:100330006330710541F064307105D1F4FC01FF2791
:1003400084A1892B0FC0FC01FF2784A1892B84A3E2
:1003500085A19095892309C0FC01FF2784A1292F3D
:100360002095822384A385A1892B85A381E008950C
:1003700080E00895E82FF0E0EE0FFF1FEF5BFE4FE7
:100380008081882321F0918181E0892702C080E06B
:1003900090E081700895E82FF0E0EE0FFF1FEF5B13
:1003A000FE4F8081811102C0818102C080E090E017
:1003B00081700895E82FF0E0EE0FFF1FEF5BFE4F16
:1003C00080810895E82FF0E0EE0FFF1FEF5BFE4FF6
:1003D000908181E0892708957F928F929F92AF92BA
:1003E000BF92CF92DF92EF92FF920F931F93CF9322
:1003F000DF93C1E4D1E050E3C52E51E0D52E66E095
:10040000762E88818983F601019111916F0158013F
:10041000BB24F50124A1E12EFF2485A190E08E21CB
:100420009F2130E02E213F21232B31F0892B51F4E5
:1004300033E0832E912C0DC0892B41F488248394C2
:10044000912C07C094E0892E912C03C082E0882E65
:10045000912C64E070E0C8010E94860162E070E0C7
:10046000C8010E948601872D8A95F1F7F50183A1C5
:1004700090E0E822F92281E0EF2809F080E088830B
:10048000B401C8010E9486012296F1E0CB34DF0757
:1004900009F0B7CFDF91CF911F910F91FF90EF90AF
:1004A000DF90CF90BF90AF909F908F907F900895F6
:1004B0000895CF93DF93EC010E94B5009E0140E0C8
:1004C00050E062E17AE780E090E00E942F033093F1
:1004D0004E0120934D01DF91CF91089580914B0102
:1004E00090914C010E94C40020914B0130914C012D
:1004F00080914D0190914E01820F931F90934C017A
:1005000080934B0108950E94A5000E94580288EE36
:1005100093E00E945902CAE0D1E088E1E82E81E030
:10052000F82E00E011E064E070E0899199910E945A
:10053000590064E070E0F801819191918F010E946F
:100540005900EC16FD0679F71092800085E0809343
:100550008100109282000AE011E00E948D000E944A
:10056000EC0183E00E94BA018823E1F163E070E0CE
:1005700080E090E10E945900C0E0D1E064E070E0CA
:10058000899199910E945900F1E0CA30DF07B1F7D3
:1005900063E070E083E090E40E94590063E070E063
:1005A00080E090E80E94590063E070E083E090E111
:1005B0000E9459001092850010928400809184005E
:1005C0009091850082349F40C8F3C0E0D1E064E0A0
:1005D00070E0899199910E9459000C171D07B9F795
:1005E0000E948D0081E00E94BA01882309F4B5CFF2
:1005F00063E070E080E090E10E945900C0E0D1E04B
:1006000064E070E0899199910E9459000C171D07D0
:10061000B9F763E070E083E090E80E94590063E07E
:1006200070E083E090E20E945900109285001092E1
:100630008400809184009091850082349F40C8F3AB
:1006400064E070E083E090E80E94590064E070E0AC
:1006500083E090E20E9459000E948D007ECF052E1B
:1006600097FB1EF400940E94460357FD07D00E949A
:100670004E0307FC03D04EF40C944603509540956E
:10068000309521953F4F4F4F5F4F0895909580953E
:10069000709561957F4F8F4F9F4F0895A1E21A2E5D
:1006A000AA1BBB1BFD010DC0AA1FBB1FEE1FFF1F16
:1006B000A217B307E407F50720F0A21BB30BE40B66
:1006C000F50B661F771F881F991F1A9469F76095AD
:1006D0007095809590959B01AC01BD01CF01089567
:0406E000F894FFCFBC
:1006E400034000800310038003200040002000101A
:1006F400000800040002000103400080031003808E
:100704000320004000200010000800040002000143
:0A071400038003400320008003105F
:00000001FF
