:100000000C943A000C9457000C9457000C94570031
:100010000C9457000C9457000C9457000C94570004
:100020000C9457000C9457000C9457000C945700F4
:100030000C9457000C9457000C9457000C945700E4
:100040000C9457000C9457000C9457000C945700D4
:100050000C9457000C9457000C9457000C945700C4
:100060000C9457000C9457000C9457000C945700B4
:100070000C94570011241FBECFEFD4E0DEBFCDBFDC
:1000800013E0A0E0B1E0ECE6FDE002C005900D92C7
:10009000A435B107D9F723E0A4E5B3E001C01D9270
:1000A000AD36B207E1F70E948A050C94B4060C94B1
:1000B00000006230710519F170F46130710559F575
:1000C000FC01FF2724A1392F3095922F932394A36D
:1000D00085A183231DC06330710541F06430710533
:1000E000D1F4FC01FF2784A1892B0FC0FC01FF275D
:1000F00084A1892B84A385A19095892309C0FC0143
:10010000FF2784A1292F2095822384A385A1892BF1
:1001100085A381E0089580E0089563E070E080E0C9
:1001200090E10E94590063E070E083E090E10E945A
:10013000590063E070E083E090E80E94590063E0BA
:1001400070E083E090E20C94590089B1082E000C15
:10015000990B892F881F8827881F90E0089584EFC6
:1001600091E00E946A0484EF91E00E94F70189E423
:1001700091E00E94E9038AE00E94D90381E090E0C7
:100180000E94DF0357985F9808958CE493E00C94E5
:10019000CA03E1E6F0E080E880831082A89584B786
:1001A000877F84BFE0E6F0E08081886180831082F1
:1001B00008951092800084E0809381001092850061
:1001C0001092840008958091840090918500089594
:1001D000AC0180918400909185009C01241B350B1B
:1001E000283E3340B0F70895209184003091850077
:1001F000820F931F0C94E800853098F4673088F4E0
:1002000021E030E001C0220F6A95EAF7E82FF0E024
:10021000EB5AFC4F922F9095808189234111822BBC
:1002200080830895853080F4673070F421E030E0F9
:1002300001C0220F6A95EAF7E82FF0E0EB5AFC4F75
:100240008081282381E009F480E0089560915403BF
:10025000E62FF0E0EB5AFC4F80810E947401809100
:1002600054038F5F853018F48093540308951092DF
:1002700054030895E5E5F3E010821182128213829F
:10028000148208950E9452010C943A019C01FC01D1
:10029000FF2784A1832B84A395A1892F832B85A37A
:1002A00081E00895CF93DF93C4E3D3E089919991DE
:1002B0000E94460183E0C234D807C1F783E090E48E
:1002C0000E94460180E090E80E94460183E090E1B0
:1002D0000E94460183E090E80E94460183E090E29C
:1002E000DF91CF910C944601E0915A03F0E0EE0FBC
:1002F000FF1FE65DFC4F20813181F901FF2795A1A9
:10030000932B95A3E4E3F3E097E020813181D901B9
:10031000BB2795962C91959780FF03C0309523239A
:1003200001C0232B95962C9386959150329691116E
:10033000ECCFE62FF0E0EE0FFF1FE65DFC4F808173
:100340009181FC01FF2785A19095892385A3609366
:100350005A030895009789F0FC012381621B67FD11
:1003600009C0062E000C770B248130E081E0621773
:1003700073070CF080E08170089580E00895CF93BA
:10038000DF93FC01892B79F18181481760F5928117
:10039000291748F59381A62FA91BA7FD24C00A2E73
:1003A000000CBB0BC481D0E0AC17BD07E4F4622F96
:1003B0000E943606480F858190E0BD010E943F06ED
:1003C0000696242F269526952695E80FF91FE20F0D
:1003D000F11D808190E0477002C0959587954A9500
:1003E000E2F7817001C080E0DF91CF910895CF9353
:1003F000DF93EC010E94D9009E0140E050E062E1F1
:100400007AE780E090E00E94640630935E032093D8
:100410005D03DF91CF91089580915B0390915C0320
:100420000E94E80020915B0330915C0380915D03A2
:1004300090915E03820F931F90935C0380935B0304
:100440000895692F0C94120141E0611101C040E050
:10045000692F0C94FC000C9424025F926F927F929F
:100460008F929F92AF92BF92CF92DF92EF92FF92C4
:100470000F931F93CF93DF93562E872E942E5C01FC
:10048000E62EF72EC62F660FDD0BC81BD10987FDA0
:10049000D395072F770F110B091B110997FD1395A2
:1004A000D7FF03C077247A9402C07724739417FF90
:1004B00003C066246A9402C066246394D7FF03C015
:1004C000D195C195D10917FF03C011950195110967
:1004D000C017D107A4F06E01D594C794F92EA514C6
:1004E00011F1692D8A2D9F2D0E942402C01AD10A74
:1004F000D7FE03C0CC0EDD1EF60CA70CF0CF6801B2
:10050000D594C794E82EB81471F0692D8E2D9B2DCB
:100510000E942402CC1ADD0AD7FE03C0C00ED11EF1
:10052000E70CB60CF0CF692DC701DF91CF911F9179
:100530000F91FF90EF90DF90CF90BF90AF909F9082
:100540008F907F906F905F900C942402FF920F9396
:100550001F93CF93DF93D82FF92E162FC72F042F79
:10056000792F0E942D02402F6D2F7C2F8D2F9F2DD4
:100570000E942D02402F612F7C2F812F9F2D0E94E2
:100580002D02402F612F7C2F8D2F9C2F0E942D023A
:10059000DF91CF911F910F91FF9008950E943A0132
:1005A000E0E0F1E0118A14860895DF92EF92FF9265
:1005B0000F931F93CF93DF93D82E7B01162F0F2D10
:1005C0008091020190910301D0E0019799F50F2DE0
:1005D0000D1BE0910801F09109018181C0E0D8175D
:1005E000B8F48091080190910901FC012281C217A1
:1005F00068F42C2F4D2F6D2D0E94BF01682F8E2D7A
:100600008C0F902F0E942402CF5FEBCFDF5FDFCFF4
:10061000E0910801F09109018281C81740F460E07F
:100620008E2D8C0F902F0E942402CF5FF1CF0150AE
:1006300030C0DF5F1E2D1D0FE0910801F091090110
:100640008181C0E0D817A8F4809108019091090138
:10065000FC012281C21768F72C2F4D2F6D2D0E94AF
:10066000BF01682F812F9F2D9C0F0E942402CF5F16
:10067000EBCFE0910801F09109018281C81740F4A5
:1006800060E0812F9F2D9C0F0E942402CF5FF1CF4D
:100690001F5F812F902FDF91CF911F910F91FF90BE
:1006A000EF90DF9008950F931F93CF938C01C0E0DC
:1006B000F80181918F01882341F00E94D502BC018D
:1006C000CF5F853014F477FFF3CF8C2FCF911F913C
:1006D0000F9108950F931F93CF93DF9310920C0106
:1006E00040930D0110921001009108011091090131
:1006F0000115110509F449C09B01EC01F801818144
:10070000609106017091070190E00E943F06BC01D4
:1007100080910A0190910B010E945006CB016AE082
:1007200070E00E943F0690930F0180930E0130937A
:1007300005012093040140E250E0BE0181E191E017
:100740000E94A50680910001909101010197E9F4B2
:10075000FE0101900020E9F73197BF016C1B7D0B72
:10076000F80181818F5F0E9436068150209102013D
:10077000309103012130310511F095E001C097E07F
:10078000981718F48EEF80931001DF91CF911F918D
:100790000F9108952091020130910301213031051C
:1007A00011F070E001C076E04FEF60E00E946A0354
:1007B000089590E090930701809306010895909327
:1007C0000101809300010895909303018093020139
:1007D00008959093090180930801089580915F0323
:1007E0009091600301969093600380935F03209142
:1007F0000E0130910F018217930708F469C010921F
:10080000600310925F03E0910C01F0E0E050FF4FB5
:10081000818981110AC080910D01823008F458C08D
:10082000815080930D0110920C0180910C0190E099
:10083000FC01E050FF4F2189222309F449C0409177
:10084000000150910101209110014115510521F045
:100850004130510599F024C0211122C0609104015A
:10086000709105018F5E9E4F0E94530390E00197A7
:1008700090910C01890F80930C0112C060910401CA
:1008800070910501409102015091030141305105E1
:1008900011F4720F01C0621B8F5E9E4F0E945303C2
:1008A000809110018F5F80931001082E000C990B2E
:1008B000E0910801F0910901218130E02817390702
:1008C0003CF41092100180910C018F5F80930C0119
:1008D0000C942601CF93DF93C0E0D1E09B878A87F9
:1008E0000E94420184E190E09F838E83DF91CF914B
:1008F0000C94CE026230710519F170F4613071050B
:1009000059F5FC01FF2724A1392F3095922F93230D
:1009100094A385A183231DC06330710541F0643029
:100920007105D1F4FC01FF2784A1892B0FC0FC01C4
:10093000FF2784A1892B84A385A19095892309C0D1
:10094000FC01FF2784A1292F2095822384A385A160
:10095000892B85A381E0089580E00895E82FF0E0D9
:10096000EE0FFF1FEF59FC4F8081882321F091810A
:1009700081E0892702C080E090E081700895E82F2F
:10098000F0E0EE0FFF1FEF59FC4F8081811102C094
:10099000818102C080E090E081700895E82FF0E04E
:1009A000EE0FFF1FEF59FC4F80810895E82FF0E014
:1009B000EE0FFF1FEF59FC4F908181E089270895CA
:1009C0007F928F929F92AF92BF92CF92DF92EF92DF
:1009D000FF920F931F93CF93DF93C1E6D3E052E4CE
:1009E000C52E53E0D52E66E0762E88818983F601E8
:1009F000019111916F015801BB24F50124A1E12E51
:100A0000FF2485A190E08E219F2130E02E213F21FF
:100A1000232B31F0892B51F433E0832E912C0DC020
:100A2000892B41F488248394912C07C094E0892E6B
:100A3000912C03C082E0882E912C64E070E0C80104
:100A40000E947A0462E070E0C8010E947A04872D57
:100A50008A95F1F7F50183A190E0E822F92281E07F
:100A6000EF2809F080E08883B401C8010E947A046D
:100A70002296F3E0CB36DF0709F0B7CFDF91CF91B5
:100A80001F910F91FF90EF90DF90CF90BF90AF90AC
:100A90009F908F907F900895089581110DC080914F
:100AA0006B03882329F090916C0381E0892702C0B1
:100AB00080E090E08170089580E0089581110BC07E
:100AC00080916B03811103C080916C0302C080E0B0
:100AD00090E08170089580E00895811103C08091B5
:100AE0006B03089580E00895811105C090916B0318
:100AF00081E08927089580E00895EBE6F3E08081A6
:100B0000818389B1881F8827881F8083089557981B
:100B10005F9808950E94C9000E944C0588EE93E0FA
:100B20000E94F701CBE3D1E089E4E82E81E0F82EC2
:100B300001E311E064E070E0899199910E9459000D
:100B400064E070E0F801819191918F010E94590059
:100B5000EC16FD0679F71092800085E08093810005
:100B6000109282000BE311E00E948D000E94E004CD
:100B700083E00E94AE048823E1F163E070E080E04E
:100B800090E10E945900C1E3D1E064E070E08991F6
:100B900099910E945900F1E0CB33DF07B1F763E090
:100BA00070E083E090E40E94590063E070E080E030
:100BB00090E80E94590063E070E083E090E10E94B9
:100BC00059001092850010928400809184009091C9
:100BD000850082349F40C8F3C1E3D1E064E070E057
:100BE000899199910E9459000C171D07B9F70E942D
:100BF0008D0081E00E94AE04882309F4B5CF63E044
:100C000070E080E090E10E945900C1E3D1E064E02F
:100C100070E0899199910E9459000C171D07B9F74E
:100C200063E070E083E090E80E94590063E070E0C8
:100C300083E090E20E945900109285001092840097
:100C4000809184009091850082349F40C8F364E0D5
:100C500070E083E090E80E94590064E070E083E077
:100C600090E20E9459000E948D007ECF002480FDFA
:100C7000060E660F11F08695D1F7802D0895002499
:100C8000552704C0080E591F880F991F009729F097
:100C900076956795B8F37105B9F7802D952F08956E
:100CA000AA1BBB1B51E107C0AA1FBB1FA617B70792
:100CB00010F0A61BB70B881F991F5A95A9F78095AE
:100CC0009095BC01CD010895052E97FB1EF400946C
:100CD0000E947B0657FD07D00E94830607FC03D0C5
:100CE0004EF40C947B0650954095309521953F4FDE
:100CF0004F4F5F4F089590958095709561957F4F08
:100D00008F4F9F4F0895A1E21A2EAA1BBB1BFD0116
:100D10000DC0AA1FBB1FEE1FFF1FA217B307E407DA
:100D2000F50720F0A21BB30BE40BF50B661F771F32
:100D3000881F991F1A9469F7609570958095909512
:100D40009B01AC01BD01CF010895FB01DC014150C5
:100D5000504048F001900D920020C9F701C01D924B
:0C0D600041505040E0F70895F894FFCF98
:100D6C000000000000001400000000000000000063
:100D7C000000000000000000000000000000000067
:100D8C000000000000000000000000000000000057
:100D9C00000340008003100380032000400020006B
:100DAC00100008000400020001010507205F050087
:100DBC0000000000C6186380014A290000004A7D2B
:100DCC00F59502C417471F016322223206261551DE
:100DDC009305860800000088082108028220848878
:100DEC0000805457090080904F0800000060880074
:100DFC0000800F00000000008C0100222202002E57
:100E0C00E63AA303C4104288032E4244C4072E4280
:100E1C0007A30388A9F411023F8407A3032E8617A6
:100E2C00A3033F424408012E4617A3032E460FA3EB
:100E3C0003C018600C00C018608800888820080265
:100E4C00007CF0010082208888002E424400012E94
:100E5C00425BAB0344C51F63042FC617E3032E8606
:100E6C0010A2032FC618E3033F8417C2073F841751
:100E7C0042002E861EA30731C61F63048E104288C3
:100E8C0003104218A3033195515204218410C20758
:100E9C0071D71A630471D61C63042EC618A3032FD2
:100EAC00C61742002EC65893052FC61763042E068C
:100EBC0007A3039F1042080131C618A30331C618BB
:100ECC00150131C65AAB02312AA26204312A4208FA
:100EDC00011F2222C207278410C201200882200091
:100EEC000E218490034445000000000000C00782DE
:100EFC00200000000038E8A30721B419E30300B870
:100F0C0010A20310DA1CA30700B8F883034C8A2341
:100F1C008400C0C7E8A10321B419630404184288F3
:100F2C0003083084920121A4324A028610428803BD
:100F3C0000AC5A630400B419630400B818A303008E
:100F4C00BCF8420000D8EC210400B419420000B8EF
:100F5C00E0E003421C21240300C418B30500C418AC
:100F6C00150100C45AAB02004445540400C4E8A166
:100F7C0003007C44C4078810410802841042080115
:100F8C00821044880000888A00000340008003100F
:100F9C000380032000400020001000080004000221
:100FAC0000010380034003200080031057454C438D
:040FBC004F4D450050
:00000001FF
